:100000000C942A000C9447000C9447000C94470071
:100010000C9447000C9447000C9447000C94470044
:100020000C9447000C9447000C9447000C94470034
:100030000C9447000C9447000C9447000C94470024
:100040000C9447000C9447000C9447000C94470014
:100050000C94470011241FBECFE5D8E0DEBFCDBF12
:1000600010E0A0E6B0E0E4E3F6E002C005900D92F7
:10007000AC3EB107D9F720E0ACEEB0E001C01D9274
:10008000AE3EB207E1F70E9475010C9418030C9480
:100090000000BC01990F880B990B0E948C022FE67F
:1000A00032E143E05EE30E94E9010E945B021DBC75
:1000B0001CBC2EB525602EBD7BBD6ABD08B604FEF6
:1000C000FDCF8CB59DB59DBD8CBD8EB58EBD88B761
:1000D000806188BF0895CF93DF93EC01C1348FE135
:1000E000D80734F080E49FE10E944900C054DF410A
:1000F000CE01DF91CF910C9449009498959888BBDC
:10010000969A81E090E00E94490096980895949A0A
:10011000959888BB969A85E090E00E944900969851
:1001200008950F931F93CF93DF938C01C0E0D0E02D
:10013000F801EC0FF11D8081882351F00E948700A7
:10014000C031D10519F480EC0E947D002196F0CFDA
:10015000DF91CF911F910F9108958FEF87BB80E7BB
:1001600081BB969888E30E947D008CE00E947D0010
:1001700081E00E947D0086E00E947D0080E80C9472
:100180007D0083E084BBA89AA99A089583E084BB8C
:10019000A99A8DE08A95F1F70000A89A8DE08A95DA
:1001A000F1F70000A9988DE08A95F1F70000A89872
:1001B0008DE08A95F1F700000895A19AA9988DE045
:1001C0008A95F1F70000A89A8DE08A95F1F7000072
:1001D000A99A8DE08A95F1F70000089598E087FFCD
:1001E00002C0A99A01C0A998A89A2DE02A95F1F712
:1001F0000000A8982DE02A95F1F70000880F915093
:1002000071F7A198A89A83B39DE09A95F1F7000041
:10021000A898A19A2DE02A95F1F7000086958170A3
:100220000895BC0120E0FB01E20FF11D90819923AC
:1002300069F12F5F38E097FF02C0A99A01C0A99821
:10024000A89A8DE08A95F1F70000A8988DE08A952C
:10025000F1F70000990F315071F7A198A89A999978
:1002600017C04091EC005091ED004F5F5F4F5093ED
:10027000ED004093EC008DE08A95F1F70000A8981E
:10028000A19A8DE08A95F1F70000CDCF80E0089526
:1002900081E00895282FA19898E080E0880FA89A1F
:1002A000999981603DE03A95F1F70000A8983DE00A
:1002B0003A95F1F70000915089F7A19A222329F08D
:1002C000A9989DE09A95F1F704C0A99A3DE03A9566
:1002D000F1F70000A89A9DE09A95F1F70000A89820
:1002E0003DE03A95F1F700000895CF93DF930E9427
:1002F000AD000E94C60080EA0E94EE00882331F023
:100300000E94DD0080E690E00E94910080E00E9463
:10031000EE00882329F00E94DD0083E790E00AC008
:100320008BE890E00E941101882339F00E94DD00E3
:100330008CE990E00E94910047C00E94DD008FE0B0
:1003400097E20197F1F700C000000E94C60080EA22
:100350000E94EE00882329F00E94DD0080EB90E0EF
:10036000E9CF80E00E94EE00882329F00E94DD00A2
:1003700083EC90E0DFCF0E94C60081EA0E94EE008D
:10038000882329F00E94DD008AED90E0D3CF81E040
:100390000E947D0080E80E947D00C1E0D0E0809155
:1003A000EC009091ED008C179D0764F0C817D907F9
:1003B00011F480E001C081E00E944A010E948700A0
:1003C0002196EDCF0E94DD0080E090E0DF91CF919B
:1003D00008950E94FD010C94DE020E94D70258F09D
:1003E0000E94D00240F029F45F3F29F00C94C7022C
:1003F00051110C9412030C94CD020E94EF0268F389
:100400009923B1F3552391F3951B550BBB27AA27CD
:1004100062177307840738F09F5F5F4F220F331F07
:10042000441FAA1FA9F335D00E2E3AF0E0E832D0CF
:1004300091505040E695001CCAF72BD0FE2F29D0D2
:10044000660F771F881FBB1F261737074807AB07A4
:10045000B0E809F0BB0B802DBF01FF2793585F4F19
:100460003AF09E3F510578F00C94C7020C941203A9
:100470005F3FE4F3983ED4F3869577956795B795FB
:10048000F7959F5FC9F7880F911D9695879597F906
:100490000895E1E0660F771F881FBB1F621773077F
:1004A0008407BA0720F0621B730B840BBA0BEE1F94
:1004B00088F7E09508950E94F70288F09F5798F01A
:1004C000B92F9927B751B0F0E1F0660F771F881F59
:1004D000991F1AF0BA95C9F714C0B13091F00E9473
:1004E0001103B1E008950C941103672F782F88272A
:1004F000B85F39F0B93FCCF3869577956795B3959A
:10050000D9F73EF490958095709561957F4F8F4F08
:100510009F4F0895E89409C097FB3EF4909580950D
:10052000709561957F4F8F4F9F4F9923A9F0F92FB9
:1005300096E9BB279395F695879577956795B79537
:10054000F111F8CFFAF4BB0F11F460FF1BC06F5F1D
:100550007F4F8F4F9F4F16C0882311F096E911C02F
:10056000772321F09EE8872F762F05C0662371F050
:1005700096E8862F70E060E02AF09A95660F771F64
:10058000881FDAF7880F9695879597F9089597F958
:100590009F6780E870E060E008959FEF80EC089529
:1005A00000240A9416161706180609060895002452
:1005B0000A9412161306140605060895092E0394CC
:1005C000000C11F4882352F0BB0F40F4BF2B11F440
:1005D00060FF04C06F5F7F4F8F4F9F4F089557FD9F
:1005E0009058440F551F59F05F3F71F04795880FA1
:1005F00097FB991F61F09F3F79F087950895121638
:1006000013061406551FF2CF4695F1DF08C01616E3
:1006100017061806991FF1CF869571056105089494
:100620000895E894BB2766277727CB0197F90895AB
:04063000F894FFCF6C
:10063400414444525F57524954455F4552524F52C8
:10064400312100504F534954494F4E5F504C414360
:10065400494E475F4552524F52210057454C434F34
:100664004D452041544D45474133320044415441A6
:100674005F57524954494E475F4552524F522100E9
:10068400414444525F57524954455F4552524F5278
:10069400322100504F534954494F4E5F504C41430F
:1006A400455F4552524F52322100414444525F52F9
:0C06B4004541445F4552524F5221000066
:00000001FF
