:100000000C942A000C9447000C9447000C94470071
:100010000C9447000C9447000C9447000C94470044
:100020000C9447000C9447000C9447000C94470034
:100030000C9447000C9447000C9447000C94470024
:100040000C9447000C9447000C9447000C94470014
:100050000C94470011241FBECFE5D8E0DEBFCDBF12
:1000600010E0A0E6B0E0E4E3F4E002C005900D92F9
:10007000A43EB107D9F720E0A4EEB0E001C01D9284
:10008000A63EB207E1F70E94FE010C9418020C9400
:100090000000809590959DBD8CBD8EB582608EBD13
:1000A00008B602FEFDCF8EB58EBD88B7846088BFCE
:1000B00008950C944900949895980895949A959869
:1000C000089588BB969A88EE93E00E94490096981E
:1000D000089588BB969A88E893E10E944900969813
:1000E00008950F931F93CF93DF938C010E945E00BE
:1000F000C0E0D0E0F801EC0FF11D8081882371F0A1
:100100000E946900C031D10539F40E945B0080EC87
:100110000E9461000E945E002196ECCFDF91CF919A
:100120001F910F9108958FEF87BB80E781BB969851
:100130000E945B0088E30E9461008CE00E946100E5
:1001400081E00E94610086E00E94610080E80C94DA
:10015000610083E084BBA89AA99A0895A99A85E0D2
:1001600090E00E944900A89A85E090E00E94490032
:10017000A99885E090E00E944900A89885E090E069
:100180000C944900A19AA99885E090E00E9449004A
:10019000A89A85E090E00E944900A99A85E090E045
:1001A0000C944900CF93DF93D82FC8E0D7FF02C04B
:1001B000A99A01C0A998A89A85E090E00E944900F8
:1001C000A89885E090E00E944900DD0FC15071F7CA
:1001D000A198A89A83B3C82FC27081FD0BC085E097
:1001E00090E00E944900A898A19A85E090E00E94C2
:1001F000490001C0C1E08C2FDF91CF910895AC017F
:1002000090E0FA01E90FF11D2081222361F0209195
:10021000E4003091E5002F5F3F4F3093E5002093DD
:10022000E4009F5FEECF0895EF92FF921F93CF936C
:10023000DF937C01D0E0F701ED0FF11DC081CC23ED
:1002400019F1DF5F18E0C7FF02C0A99A01C0A998A1
:10025000A89A85E090E00E944900A89885E090E087
:100260000E944900CC0F115071F7A198A89A999952
:100270000DC085E090E00E944900A898A19A85E011
:1002800090E00E944900D7CF80E001C081E0DF917B
:10029000CF911F91FF90EF9008951F93CF93DF931D
:1002A000182FA198D8E0C0E0CC0FA89A9999C16006
:1002B00085E090E00E944900A89885E090E00E94C7
:1002C0004900D15089F7A19A112311F0A99801C0D2
:1002D000A99A85E090E00E944900A89A85E090E004
:1002E0000E944900A89885E090E00E9449008C2F68
:1002F000DF91CF911F910895CF93DF93D82FC62F11
:100300000E94AE008D2F0E94D200882329F00E9407
:10031000C20080E690E009C08C2F0E94D2008823A2
:1003200041F00E94C20083E790E00E94710080E0EB
:1003300012C08BE890E00E941401882329F00E94EB
:10034000C20084E990E0F1CF0E94C20088E893E106
:100350000E94490081E0DF91CF9108951F93CF93D0
:10036000DF93182FD62FC42F0E94AE00812F0E943A
:10037000D200882329F00E94C20088EA90E009C0D8
:100380008D2F0E94D200882339F00E94C2008BEB8F
:1003900090E00E9471002DC00E94AE008C2F0E9440
:1003A000D200882329F00E94C20082ED90E0F1CFB4
:1003B0000E945B0081E00E94610080E80E94610071
:1003C0000E945E00C1E0D0E08091E4009091E500E1
:1003D0008C179D0764F0C817D90711F480E001C09D
:1003E00081E00E944D010E9469002196EDCF0E949C
:1003F000C20080E0DF91CF911F9108950E94930089
:100400000E94A90085E090E00E9449008BE890E0FE
:100410000E94FF0060E080EA0E947C01882329F0AE
:1004200041EA60E080EA0E94AE0180E090E0089539
:04043000F894FFCF6E
:10043400414444525F57524954455F4552524F52CA
:10044400312100504F534954494F4E5F504C414362
:10045400494E475F4552524F52210041544D454742
:1004640041333200444154415F57524954494E4745
:100474005F4552524F522100414444525F57524902
:1004840054455F4552524F52322100504F53495404
:10049400494F4E5F504C4143455F4552524F523293
:1004A4002100414444525F524541445F4552524FFA
:0404B40052210000D1
:00000001FF
