:100000000C942A000C9447000C9447000C94470071
:100010000C9447000C9447000C9447000C94470044
:100020000C9447000C9447000C9447000C94470034
:100030000C9447000C9447000C9447000C94470024
:100040000C9447000C9447000C9447000C94470014
:100050000C94470011241FBECFE5D8E0DEBFCDBF12
:1000600010E0A0E6B0E0E0EBF6E002C005900D92F3
:10007000A43EB107D9F720E0A4EEB0E001C01D9284
:10008000A63EB207E1F70E940D020C9456030C94B1
:100090000000BC01990F880B990B0E94CA022FE641
:1000A00032E143E05EE30E9427020E9499021DBCF8
:1000B0001CBC2EB525602EBD7BBD6ABD08B604FEF6
:1000C000FDCF8CB59DB59DBD8CBD8EB58EBD88B761
:1000D000806188BF0895CF93DF93EC01C1348FE135
:1000E000D80734F080E49FE10E944900C054DF410A
:1000F000CE01DF91CF910C94490094989598089582
:10010000949A9598089588BB969A81E090E00E9411
:1001100049009698089588BB969A85E090E00E94E1
:100120004900969808950F931F93CF93DF938C0106
:100130000E948000C0E0D0E0F801EC0FF11D80814A
:10014000882371F00E948B00C031D10539F40E94E0
:100150007D0080EC0E9483000E9480002196ECCFFD
:10016000DF91CF911F910F9108958FEF87BB80E7AB
:1001700081BB96980E947D0088E30E9483008CE0FA
:100180000E94830081E00E94830086E00E94830039
:1001900080E80C94830083E084BBA89AA99A089510
:1001A000A99A8DE08A95F1F70000A89A8DE08A95CA
:1001B000F1F70000A9988DE08A95F1F70000A89862
:1001C0008DE08A95F1F700000895A19AA9988DE035
:1001D0008A95F1F70000A89A8DE08A95F1F7000062
:1001E000A99A8DE08A95F1F70000089598E087FFBD
:1001F00002C0A99A01C0A998A89A2DE02A95F1F702
:100200000000A8982DE02A95F1F70000880F915082
:1002100071F7A198A89A93B3892F827091FD0BC0B2
:100220009DE09A95F1F70000A898A19A2DE02A95F3
:10023000F1F70000089581E00895AC0190E0FA0123
:10024000E90FF11D2081222361F02091E40030911B
:10025000E5002F5F3F4F3093E5002093E4009F5F60
:10026000EECF0895AC0120E0FA01E20FF11D90817C
:10027000992319F12F5F38E097FF02C0A99A01C0B6
:10028000A998A89A8DE08A95F1F70000A8988DE0CA
:100290008A95F1F70000990F315071F7A198A89A4B
:1002A00099990DC08DE08A95F1F70000A898A19A60
:1002B0008DE08A95F1F70000D7CF80E0089581E0C6
:1002C0000895282FA19898E080E0880FA89A99991E
:1002D00081603DE03A95F1F70000A8983DE03A953D
:1002E000F1F70000915089F7A19A222311F0A99803
:1002F00001C0A99A9DE09A95F1F70000A89A3DE007
:100300003A95F1F70000A8989DE09A95F1F7000062
:100310000895CF93DF93D82FC62F0E94D0008D2F42
:100320000E94F600882329F00E94E50080E690E014
:1003300009C08C2F0E94F600882341F00E94E5003E
:1003400083E790E00E94930080E014C08BE890E087
:100350000E943201882329F00E94E50084E990E0A0
:10036000F1CF0E94E5008FE097E20197F1F700C01E
:10037000000081E0DF91CF9108951F93CF93DF9329
:10038000182FD62FC42F0E94D000812F0E94F60074
:10039000882329F00E94E50088EA90E009C08D2FAB
:1003A0000E94F600882339F00E94E5008BEB90E074
:1003B0000E9493002DC00E94D0008C2F0E94F60056
:1003C000882329F00E94E50082ED90E0F1CF0E94A1
:1003D0007D0081E00E94830080E80E9483000E94EB
:1003E0008000C1E0D0E08091E4009091E5008C179E
:1003F0009D0764F0C817D90711F480E001C081E0BF
:100400000E9461010E948B002196EDCF0E94E500C1
:1004100080E0DF91CF911F9108950E94B5000E9466
:10042000CB008DE08A95F1F700008BE890E00E9408
:100430001D0160E080EA0E948901882329F041EAD9
:1004400060E080EA0E94BD0180E090E008950E9493
:100450003B020C941C030E94150358F00E940E03EB
:1004600040F029F45F3F29F00C94050351110C94DE
:1004700050030C940B030E942D0368F39923B1F3EE
:10048000552391F3951B550BBB27AA2762177307BA
:10049000840738F09F5F5F4F220F331F441FAA1F4E
:1004A000A9F335D00E2E3AF0E0E832D0915050400A
:1004B000E695001CCAF72BD0FE2F29D0660F771FB8
:1004C000881FBB1F261737074807AB07B0E809F09E
:1004D000BB0B802DBF01FF2793585F4F3AF09E3F23
:1004E000510578F00C9405030C9450035F3FE4F33E
:1004F000983ED4F3869577956795B795F7959F5F66
:10050000C9F7880F911D9695879597F90895E1E0B1
:10051000660F771F881FBB1F621773078407BA0710
:1005200020F0621B730B840BBA0BEE1F88F7E0956B
:1005300008950E94350388F09F5798F0B92F9927A6
:10054000B751B0F0E1F0660F771F881F991F1AF0BE
:10055000BA95C9F714C0B13091F00E944F03B1E0D1
:1005600008950C944F03672F782F8827B85F39F0D0
:10057000B93FCCF3869577956795B395D9F73EF457
:1005800090958095709561957F4F8F4F9F4F0895FF
:10059000E89409C097FB3EF490958095709561951D
:1005A0007F4F8F4F9F4F9923A9F0F92F96E9BB27D3
:1005B0009395F695879577956795B795F111F8CF4F
:1005C000FAF4BB0F11F460FF1BC06F5F7F4F8F4FBA
:1005D0009F4F16C0882311F096E911C0772321F0B0
:1005E0009EE8872F762F05C0662371F096E8862F48
:1005F00070E060E02AF09A95660F771F881FDAF79F
:10060000880F9695879597F9089597F99F6780E8E1
:1006100070E060E008959FEF80EC089500240A9454
:100620001616170618060906089500240A941216CD
:100630001306140605060895092E0394000C11F400
:10064000882352F0BB0F40F4BF2B11F460FF04C0AD
:100650006F5F7F4F8F4F9F4F089557FD9058440F06
:10066000551F59F05F3F71F04795880F97FB991F11
:1006700061F09F3F79F087950895121613061406CE
:10068000551FF2CF4695F1DF08C01616170618065B
:10069000991FF1CF86957105610508940895E89436
:1006A000BB2766277727CB0197F90895F894FFCFEA
:1006B000414444525F57524954455F4552524F524C
:1006C000312100504F534954494F4E5F504C4143E4
:1006D000494E475F4552524F52210041544D4547C4
:1006E00041333200444154415F57524954494E47C7
:1006F0005F4552524F522100414444525F57524984
:1007000054455F4552524F52322100504F53495485
:10071000494F4E5F504C4143455F4552524F523214
:100720002100414444525F524541445F4552524F7B
:040730005221000052
:00000001FF
