:100000000C942A000C943F000C943F000C943F0089
:100010000C943F000C943F000C943F000C943F0064
:100020000C943F000C943F000C943F000C943F0054
:100030000C943F000C943F000C943F000C943F0044
:100040000C943F000C943F000C943F000C943F0034
:100050000C943F0011241FBECFE5D8E0DEBFCDBF1A
:1000600010E0A0E6B0E0EAEDF0E002C005900D92ED
:10007000A037B107D9F70E9441000C946B000C9493
:100080000000CF93DF93CDB7DEB760970FB6F8943B
:10009000DEBF0FBECDBF8FEF87BB8ABB8BBB80E1BE
:1000A000E0E6F0E0DE01119601900D928A95E1F70D
:1000B000CE014196FE013196219128BB2FEF39E602
:1000C00048E1215030404040E1F700C00000E8170F
:0A00D000F90791F7EFCFF894FFCF86
:1000DA000CB69ECCDAFA0EFEDE7EEEFE727EF2E2FE
:00000001FF
