:100000000C942A000C943F000C943F000C943F0089
:100010000C943F000C943F000C943F000C943F0064
:100020000C943F000C943F000C943F000C943F0054
:100030000C943F000C943F000C943F000C943F0044
:100040000C943F000C943F000C943F000C943F0034
:100050000C943F0011241FBECFE5D8E0DEBFCDBF1A
:1000600010E0A0E6B0E0EAE3F6E002C005900D92F1
:10007000AC36B107D9F70E94B7010C941B030C945E
:100080000000BC01990F880B990B0E948F022FE68C
:1000900032E143E05EE30E94EC010E945E021DBC7F
:1000A0001CBC2EB525602EBD7BBD6ABD08B604FE06
:1000B000FDCF8CB59DB59DBD8CBD8EB58EBD88B771
:1000C000806188BF0895CF93DF93EC01C1348FE145
:1000D000D80734F080E49FE10E944100C054DF4122
:1000E000CE01DF91CF910C9441009498959888BBF4
:1000F000969A81E090E00E94410096980895949A23
:10010000959888BB969A85E090E00E944100969869
:1001100008950F931F93CF93DF938C01C0E0D0E03D
:10012000F801EC0FF11D8081882351F00E947F00BF
:10013000C031D10519F480EC0E9475002196F0CFF2
:10014000DF91CF911F910F9108958FEF87BB81BBF6
:10015000969888E30E9475008CE00E94750081E00B
:100160000E94750086E00E94750080E80C9475007E
:1001700080EC85BB80EF8BBBCC9912C09FEF9ABB04
:100180009BBB9CE098BB2FEF34E39CE021503040B8
:100190009040E1F700C000001ABA8BBB81E30895DC
:1001A000CD9912C09FEF9ABB9BBB96EB98BB2FEFEC
:1001B00034E39CE0215030409040E1F700C0000063
:1001C0001ABA8BBB82E30895CE9912C09FEF9ABBF7
:1001D0009BBB9EE998BB2FEF34E39CE0215030405D
:1001E0009040E1F700C000001ABA8BBB83E308958A
:1001F000CF9912C09FEF9ABB9BBB9CEC98BB2FEF93
:1002000034E39CE0215030409040E1F700C0000012
:100210001ABA8BBB84E3089590EA95BB8BBBCC994B
:1002200012C09FEF9ABB9BBB9AED98BB2FEF34E3B4
:100230009CE0215030409040E1F700C000001ABA25
:100240008BBB85E30895CD9912C09FEF9ABB9BBBF2
:100250009AEF98BB2FEF34E39CE021503040904060
:10026000E1F700C000001ABA8BBB86E30895CE996F
:1002700012C09FEF9ABB9BBB9EE098BB2FEF34E36D
:100280009CE0215030409040E1F700C000001ABAD5
:100290008BBB87E30895CF9912C09FEF9ABB9BBB9E
:1002A0009EEF98BB2FEF34E39CE02150304090400C
:1002B000E1F700C000001ABA8BBB88E3089590E60E
:1002C00095BB8BBBCC9912C09FEF9ABB9BBB9EED9D
:1002D00098BB2FEF34E39CE0215030409040E1F791
:1002E00000C000001ABA8BBB89E30895CD9913C0F2
:1002F0008FEF8ABB8BBB8EE788BB2FEF34E38CE09C
:10030000215030408040E1F700C000001ABA80EF71
:100310008BBB80E30895CE9913C08FEF8ABB8BBB54
:100320008EEE88BB9FEF24E33CE0915020403040AC
:10033000E1F700C000001ABA80EF8BBB81E408959A
:10034000CF9913C08FEF8ABB8BBB8EEF88BB8FEF2B
:1003500094E32CE0815090402040E1F700C0000081
:100360001ABA80EF8BBB82E4089581E008950E9461
:10037000A5001ABA80EE84BB80E690E00E94890056
:10038000D0EFDBBB15BA8FE99FE00197F1F700C012
:10039000000089B3803FA9F30E94B800C82F81E014
:1003A0000E9475008CE00E9475008C2F0E947F00D7
:1003B0009FEF29E688E1915020408040E1F700C09E
:1003C000000081E00E9475008CE00E94750080E6CC
:1003D00090E00E948900D5CF0E9400020C94E102B7
:1003E0000E94DA0258F00E94D30240F029F45F3FE5
:1003F00029F00C94CA0251110C9415030C94D002EC
:100400000E94F20268F39923B1F3552391F3951BEF
:10041000550BBB27AA2762177307840738F09F5F25
:100420005F4F220F331F441FAA1FA9F335D00E2E92
:100430003AF0E0E832D091505040E695001CCAF7FF
:100440002BD0FE2F29D0660F771F881FBB1F2617C2
:1004500037074807AB07B0E809F0BB0B802DBF0199
:10046000FF2793585F4F3AF09E3F510578F00C9468
:10047000CA020C9415035F3FE4F3983ED4F38695CB
:1004800077956795B795F7959F5FC9F7880F911D89
:100490009695879597F90895E1E0660F771F881F75
:1004A000BB1F621773078407BA0720F0621B730B28
:1004B000840BBA0BEE1F88F7E09508950E94FA02AC
:1004C00088F09F5798F0B92F9927B751B0F0E1F015
:1004D000660F771F881F991F1AF0BA95C9F714C0C5
:1004E000B13091F00E941403B1E008950C9414030C
:1004F000672F782F8827B85F39F0B93FCCF38695FE
:1005000077956795B395D9F73EF49095809570955A
:1005100061957F4F8F4F9F4F0895E89409C097FBD7
:100520003EF490958095709561957F4F8F4F9F4FCA
:100530009923A9F0F92F96E9BB279395F69587950E
:1005400077956795B795F111F8CFFAF4BB0F11F4D1
:1005500060FF1BC06F5F7F4F8F4F9F4F16C0882378
:1005600011F096E911C0772321F09EE8872F762FAE
:1005700005C0662371F096E8862F70E060E02AF0EF
:100580009A95660F771F881FDAF7880F96958795DB
:1005900097F9089597F99F6780E870E060E0089503
:1005A0009FEF80EC089500240A941616170618068B
:1005B0000906089500240A94121613061406050667
:1005C0000895092E0394000C11F4882352F0BB0FF8
:1005D00040F4BF2B11F460FF04C06F5F7F4F8F4F5B
:1005E0009F4F089557FD9058440F551F59F05F3F96
:1005F00071F04795880F97FB991F61F09F3F79F045
:1006000087950895121613061406551FF2CF4695C6
:10061000F1DF08C0161617061806991FF1CF869548
:100620007105610508940895E894BB27662777272C
:0A063000CB0197F90895F894FFCF6D
:0C063A0050524553532041204B455900BD
:00000001FF
