:100000000C942A000C9447000C9447000C94470071
:100010000C9447000C9447000C9447000C94470044
:100020000C9447000C9447000C9447000C94470034
:100030000C9447000C9447000C9447000C94470024
:100040000C9447000C9447000C9447000C94470014
:100050000C94470011241FBECFE5D8E0DEBFCDBF12
:1000600011E0A0E6B0E0EAEDF6E002C005900D92E6
:10007000A833B107D9F721E0A8E3B1E001C01D9290
:10008000A534B207E1F70E947A010C946B030C943B
:100090000000BC01990F880B990B0E94DF022FE62C
:1000A00032E143E05EE30E943C020E94AE021DBCCE
:1000B0001CBC2EB525602EBD7BBD6ABD08B604FEF6
:1000C000FDCF8CB59DB59DBD8CBD8EB58EBD88B761
:1000D000806188BF0895CF93DF93EC01C1348FE135
:1000E000D80734F080E49FE10E944900C054DF410A
:1000F000CE01DF91CF910C9449009498959888BBDC
:10010000969A81E090E00E94490096980895949A0A
:10011000959888BB969A85E090E00E944900969851
:1001200008950F931F93CF93DF938C01C0E0D0E02D
:10013000F801EC0FF11D8081882351F00E948700A7
:10014000C031D10519F480EC0E947D002196F0CFDA
:10015000DF91CF911F910F91089581B181B9059AD7
:1001600086B7846086BF089586B7846A86BF06B660
:1001700007FEFDCF81B1887F803129F08FEF85BBED
:1001800080E090E0089581E090E0089586B7846A69
:1001900086BF06B607FEFDCF81B1887F883029F083
:1001A0008FEF85BB80E090E0089581E090E00895B6
:1001B00086B7846986BF089583B984E886BF06B68A
:1001C00007FEFDCF81B1887F883229F08FEF85BB94
:1001D00080E090E0089581E090E00895AC0190E027
:1001E00084E8FA01E90FF11D20812223D1F023B91F
:1001F0009F5F86BF06B607FEFDCF21B1287F28325C
:1002000029F08FEF85BB80E090E0089520913801C0
:10021000309139012F5F3F4F3093390120933801DE
:10022000E0CF81E090E0089584EC86BF06B607FE3B
:10023000FDCF81B1887F803529F08FEF85BB80E0CD
:1002400090E0089583B180933A010E94870081E095
:1002500090E0089584E886BF06B607FEFDCF81B121
:10026000887F883529F08FEF85BB80E090E0089586
:1002700083B180933A010E94870081E090E0089565
:1002800083B986B7846886BF06B607FEFDCF81B105
:10029000887F883129F08FEF85BB80E090E008955A
:1002A00081E090E0089583B986B7846886BF06B67A
:1002B00007FEFDCF81B1887F803429F08FEF85BBA9
:1002C00080E090E0089581E090E008958FEF84BB96
:1002D00087BB81BB969888E30E947D008CE00E94DA
:1002E0007D0081E00E947D0086E00E947D0080E824
:1002F0000C947D00CF93DF930E9466010E94AD00B5
:100300000E94C60080933B01811103C080E690E00B
:100310000FC080EA0E94400180933B0181110BC015
:1003200081E00E947D0080E80E947D0081E790E0EE
:100330000E9491009CC080E00E94DC0080933B0101
:10034000811109C081E00E947D0080E80E947D004B
:100350008DE890E0EDCF81EA90E00E94EE0080937E
:100360003B01811109C081E00E947D0080E80E946C
:100370007D0082EB90E0DCCF0E94D8002FEF84E379
:100380009CE0215080409040E1F700C000000E94B6
:10039000C60080933B01811109C081E00E947D006D
:1003A00080E80E947D0080EC90E0C2CF80EA0E944D
:1003B000400180933B01811109C081E00E947D00D2
:1003C00080E80E947D0085ED90E0B2CF80E00E9441
:1003D000DC0080933B01811109C081E00E947D0017
:1003E00080E80E947D0084EF90E0A2CF0E94B400DC
:1003F00080933B01811109C081E00E947D0080E86B
:100400000E947D0087E091E093CF81EA0E94530132
:1004100080933B01882319F0C1E0D0E00AC081E05D
:100420000E947D0080E80E947D008DE191E080CFF8
:10043000219680913801909139018C179D07ACF07D
:10044000C817D90779F40E942A0180933B018111D2
:10045000EFCF81E00E947D0080E80E947D008DE268
:1004600091E066CF0E941401F0CF0E94D80080E096
:1004700090E0DF91CF9108950E9450020C943103D7
:100480000E942A0358F00E94230340F029F45F3FA2
:1004900029F00C941A0351110C9465030C94200359
:1004A0000E94420368F39923B1F3552391F3951BFE
:1004B000550BBB27AA2762177307840738F09F5F85
:1004C0005F4F220F331F441FAA1FA9F335D00E2EF2
:1004D0003AF0E0E832D091505040E695001CCAF75F
:1004E0002BD0FE2F29D0660F771F881FBB1F261722
:1004F00037074807AB07B0E809F0BB0B802DBF01F9
:10050000FF2793585F4F3AF09E3F510578F00C94C7
:100510001A030C9465035F3FE4F3983ED4F3869589
:1005200077956795B795F7959F5FC9F7880F911DE8
:100530009695879597F90895E1E0660F771F881FD4
:10054000BB1F621773078407BA0720F0621B730B87
:10055000840BBA0BEE1F88F7E09508950E944A03BA
:1005600088F09F5798F0B92F9927B751B0F0E1F074
:10057000660F771F881F991F1AF0BA95C9F714C024
:10058000B13091F00E946403B1E008950C946403CB
:10059000672F782F8827B85F39F0B93FCCF386955D
:1005A00077956795B395D9F73EF4909580957095BA
:1005B00061957F4F8F4F9F4F0895E89409C097FB37
:1005C0003EF490958095709561957F4F8F4F9F4F2A
:1005D0009923A9F0F92F96E9BB279395F69587956E
:1005E00077956795B795F111F8CFFAF4BB0F11F431
:1005F00060FF1BC06F5F7F4F8F4F9F4F16C08823D8
:1006000011F096E911C0772321F09EE8872F762F0D
:1006100005C0662371F096E8862F70E060E02AF04E
:100620009A95660F771F881FDAF7880F969587953A
:1006300097F9089597F99F6780E870E060E0089562
:100640009FEF80EC089500240A94161617061806EA
:100650000906089500240A941216130614060506C6
:100660000895092E0394000C11F4882352F0BB0F57
:1006700040F4BF2B11F460FF04C06F5F7F4F8F4FBA
:100680009F4F089557FD9058440F551F59F05F3FF5
:1006900071F04795880F97FB991F61F09F3F79F0A4
:1006A00087950895121613061406551FF2CF469526
:1006B000F1DF08C0161617061806991FF1CF8695A8
:1006C0007105610508940895E894BB27662777278C
:0A06D000CB0197F90895F894FFCFCD
:1006DA0053544152545F4249545F4552524F52213A
:1006EA0000414444524553535F504153535F575F4F
:1006FA0057524954455F4552524F522100574F5263
:10070A00445F414444524553535F5752495445212B
:10071A000057454C434F4D452041544D45474133C1
:10072A003200444154415F50415353494E472100DE
:10073A0052454144494E475F53544152545F4552D2
:10074A00524F52210052656164696E675F5061724F
:10075A00745F414444525F50415353315F45525292
:10076A004F522100574F52445F414444524553531C
:10077A005F52454144210052455045415445445F2A
:10078A0053544152545F4552524F522100534C41E7
:10079A0056455F414444525F575F524400444154B6
:0807AA00415F5245414421006A
:040000030000018C6C
:00000001FF
