:100000000C942A000C9447000C9447000C94470071
:100010000C9447000C9447000C9447000C94470044
:100020000C9447000C9447000C9447000C94470034
:100030000C9447000C9447000C9447000C94470024
:100040000C9447000C9447000C9447000C94470014
:100050000C94470011241FBECFE5D8E0DEBFCDBF12
:1000600011E0A0E6B0E0E6E6F7E002C005900D92F0
:10007000A431B107D9F721E0A4E1B1E001C01D929C
:10008000AF31B207E1F70E9463020C94B1030C9404
:100090000000BC01990F880B990B0E9425032FE6E5
:1000A00032E143E05EE30E9482020E94F4021DBC42
:1000B0001CBC2EB525602EBD7BBD6ABD08B604FEF6
:1000C000FDCF8EB58EBD88B7806188BF0895CF9370
:1000D000DF93EC01C1348FE1D80734F080E49FE175
:1000E0000E944900C054DF41CE01DF91CF910C94B2
:1000F0004900949895980895949A9598089588BB86
:10010000969A81E090E00E9449009698089588BBF5
:10011000969A85E090E00E944900969808950F9382
:100120001F93CF93DF938C010E947C00C0E0D0E04E
:10013000F801EC0FF11D8081882371F00E94870087
:10014000C031D10539F40E94790080EC0E947F0013
:100150000E947C002196ECCFDF91CF911F910F91EF
:1001600008958FEF87BB80E781BB96980E94790046
:1001700088E30E947F008CE00E947F0081E00E9463
:100180007F0086E00E947F0080E80C947F0083E07F
:1001900084BBA89AA99A0895A99A8DE08A95F1F747
:1001A0000000A89A8DE08A95F1F70000A9988DE0EB
:1001B0008A95F1F70000A8988DE08A95F1F7000084
:1001C0000895A19AA9988DE08A95F1F70000A89A60
:1001D0008DE08A95F1F70000A99A8DE08A95F1F7F4
:1001E0000000089598E087FF02C0A99A01C0A9986D
:1001F000A89A2DE02A95F1F70000A8982DE02A95FD
:10020000F1F70000880F915071F7A198A89A93B365
:10021000892F827091FD0BC09DE09A95F1F7000047
:10022000A898A19A2DE02A95F1F70000089581E0A1
:100230000895AC0190E0FA01E90FF11D208122231D
:1002400061F020911401309115012F5F3F4F3093E1
:100250001501209314019F5FEECF0895AC0120E0BB
:10026000FA01E20FF11D9081992319F12F5F38E017
:1002700097FF02C0A99A01C0A998A89A8DE08A9513
:10028000F1F70000A8988DE08A95F1F70000990F2A
:10029000315071F7A198A89A99990DC08DE08A956F
:1002A000F1F70000A898A19A8DE08A95F1F7000077
:1002B000D7CF80E0089581E00895282FA19898E095
:1002C00080E0880FA89A999981603DE03A95F1F70E
:1002D0000000A8983DE03A95F1F70000915089F7A9
:1002E000A19A222311F0A99801C0A99A9DE09A959C
:1002F000F1F70000A89A3DE03A95F1F70000A898C0
:100300009DE09A95F1F700000895CF93DF93D82FE1
:10031000C62F0E94CC008D2F0E94F200882329F066
:100320000E94E10080E690E027C08C2F0E94F2003E
:10033000882329F00E94E10083E790E01DC080E05F
:100340000E94F200882329F00E94E1008BE890E0EF
:1003500013C080E40E94F200882329F00E94E1008B
:1003600080EA90E009C080E20E94F200882341F018
:100370000E94E10085EB90E00E948F0080E009C0C0
:100380000E94E1008FE097E20197F1F700C00000C2
:1003900081E0DF91CF9108950F931F93CF93DF9367
:1003A000182FD62FC42F0E94CC00812F0E94F2005C
:1003B000882329F00E94E1008AEC90E009C08D2F8B
:1003C0000E94F200882341F00E94E1008DED90E050
:1003D0000E948F0080E072C00E94CC008C2F0E948F
:1003E000F200882329F00E94E10084EF90E0F0CF32
:1003F0000E94790081E00E947F0080E80E947F00D7
:100400000E947C0081E00E945D018093180181E0E0
:100410000E945D018093170180E00E945D0180933E
:10042000160190911801292F2F70205D20931E0135
:10043000907792959F70905D90931D012091170188
:10044000922F9F70905D90931C01022E000C330B35
:10045000207F332794E0359527959A95E1F7205D25
:1004600020931B01982F9F70905D90931A01082E86
:10047000000C990B807F992724E0959587952A9504
:10048000E1F7805D8093190185E091E00E948F0083
:1004900009E111E0C0E0F80181918F010E9487001D
:1004A000D1E0DC0FCD7FC13019F48AE30E948700D0
:1004B000CD2FD63081F70E94E10081E0DF91CF910E
:1004C0001F910F9108950E94B1000E94C7008DE016
:1004D0008A95F1F700008BE091E00E94190160E03D
:1004E00080ED0E948501882351F088EE93E00E9400
:1004F000490041ED60E080ED0E94CC01F4CF80E046
:1005000090E008950E9496020C9477030E94700375
:1005100058F00E94690340F029F45F3F29F00C94E1
:10052000600351110C94AB030C9466030E94880382
:1005300068F39923B1F3552391F3951B550BBB2712
:10054000AA2762177307840738F09F5F5F4F220F57
:10055000331F441FAA1FA9F335D00E2E3AF0E0E84E
:1005600032D091505040E695001CCAF72BD0FE2F98
:1005700029D0660F771F881FBB1F2617370748072C
:10058000AB07B0E809F0BB0B802DBF01FF279358E4
:100590005F4F3AF09E3F510578F00C9460030C9445
:1005A000AB035F3FE4F3983ED4F386957795679568
:1005B000B795F7959F5FC9F7880F911D9695879519
:1005C00097F90895E1E0660F771F881FBB1F621738
:1005D00073078407BA0720F0621B730B840BBA0BF6
:1005E000EE1F88F7E09508950E94900388F09F57CA
:1005F00098F0B92F9927B751B0F0E1F0660F771F47
:10060000881F991F1AF0BA95C9F714C0B13091F03C
:100610000E94AA03B1E008950C94AA03672F782FD3
:100620008827B85F39F0B93FCCF386957795679501
:10063000B395D9F73EF490958095709561957F4F6D
:100640008F4F9F4F0895E89409C097FB3EF4909513
:100650008095709561957F4F8F4F9F4F9923A9F09B
:10066000F92F96E9BB279395F6958795779567952A
:10067000B795F111F8CFFAF4BB0F11F460FF1BC06E
:100680006F5F7F4F8F4F9F4F16C0882311F096E901
:1006900011C0772321F09EE8872F762F05C06623AF
:1006A00071F096E8862F70E060E02AF09A95660F68
:1006B000771F881FDAF7880F9695879597F9089521
:1006C00097F99F6780E870E060E008959FEF80EC05
:1006D000089500240A9416161706180609060895A8
:1006E00000240A9412161306140605060895092E0E
:1006F0000394000C11F4882352F0BB0F40F4BF2B7D
:1007000011F460FF04C06F5F7F4F8F4F9F4F0895BC
:1007100057FD9058440F551F59F05F3F71F04795B2
:10072000880F97FB991F61F09F3F79F08795089597
:10073000121613061406551FF2CF4695F1DF08C0B6
:10074000161617061806991FF1CF869571056105D3
:1007500008940895E894BB2766277727CB0197F97B
:060760000895F894FFCF9C
:10076600414444525F57524954455F4552524F5295
:10077600312100504F534954494F4E5F504C41432D
:10078600494E475F4552524F522100444154415F02
:1007960057524954494E475F4552524F52312100F4
:1007A600444154415F57524954494E475F4552525E
:1007B6004F52322100444154415F57524954494EE9
:1007C600475F4552524F52332100414444525F57CE
:1007D600524954455F4552524F52322100504F53B1
:1007E6004954494F4E5F504C4143455F4552524F25
:1007F60052322100414444525F524541445F4552C2
:10080600524F52210054494D452D0041544D454704
:040816004133320038
:00000001FF
