:100000000C942A000C9447000C9447000C94470071
:100010000C9447000C9447000C9447000C94470044
:100020000C9447000C9447000C9447000C94470034
:100030000C9447000C9447000C9447000C94470024
:100040000C9447000C9447000C9447000C94470014
:100050000C94470011241FBECFE5D8E0DEBFCDBF12
:1000600011E0A0E6B0E0E4EDF4E002C005900D92EE
:10007000AC30B107D9F721E0ACE0B1E001C01D928E
:10008000A731B207E1F70E9443020C9468020C9476
:100090000000809590959DBD8CBD8EB582608EBD13
:1000A00008B602FEFDCF8EB58EBD88B7846088BFCE
:1000B00008950C944900949895980895949A959869
:1000C000089588BB969A88EE93E00E94490096981E
:1000D000089588BB969A88E893E10E944900969813
:1000E00008950F931F93CF93DF938C010E945E00BE
:1000F000C0E0D0E0F801EC0FF11D8081882371F0A1
:100100000E946900C031D10539F40E945B0080EC87
:100110000E9461000E945E002196ECCFDF91CF919A
:100120001F910F9108958FEF87BB80E781BB969851
:100130000E945B0088E30E9461008CE00E946100E5
:1001400081E00E94610086E00E94610080E80C94DA
:10015000610083E084BBA89AA99A0895A99A85E0D2
:1001600090E00E944900A89A85E090E00E94490032
:10017000A99885E090E00E944900A89885E090E069
:100180000C944900A19AA99885E090E00E9449004A
:10019000A89A85E090E00E944900A99A85E090E045
:1001A0000C944900CF93DF93D82FC8E0D7FF02C04B
:1001B000A99A01C0A998A89A85E090E00E944900F8
:1001C000A89885E090E00E944900DD0FC15071F7CA
:1001D000A198A89A83B3C82FC27081FD0BC085E097
:1001E00090E00E944900A898A19A85E090E00E94C2
:1001F000490001C0C1E08C2FDF91CF910895EF92AB
:10020000FF921F93CF93DF937C01D0E0F701ED0FB6
:10021000F11DC081CC2319F1DF5F18E0C7FF02C0D8
:10022000A99A01C0A998A89A85E090E00E94490087
:10023000A89885E090E00E944900CC0F115071F71A
:10024000A198A89A99990DC085E090E00E94490074
:10025000A898A19A85E090E00E944900D7CF80E05D
:1002600001C081E0DF91CF911F91FF90EF90089541
:100270001F93CF93DF93182FA198D8E0C0E0CC0F45
:10028000A89A9999C16085E090E00E944900A898D9
:1002900085E090E00E944900D15089F7A19A11238E
:1002A00011F0A99801C0A99A85E090E00E94490048
:1002B000A89A85E090E00E944900A89885E090E027
:1002C0000E9449008C2FDF91CF911F910895CF9309
:1002D000DF93D82FC62F0E94AE008D2F0E94D20030
:1002E000882329F00E94C20080E690E027C08C2F6E
:1002F0000E94D200882329F00E94C20083E790E088
:100300001DC080E00E94D200882329F00E94C20014
:100310008BE890E013C080E30E94D200882329F08C
:100320000E94C20080EA90E009C084E10E94D200ED
:10033000882341F00E94C20085EB90E00E9471008A
:1003400080E007C00E94C20088E893E10E94490053
:1003500081E0DF91CF9108950F931F93CF93DF93A7
:10036000182FD62FC42F0E94AE00812F0E94D200DA
:10037000882329F00E94C2008AEC90E009C08D2FEA
:100380000E94D200882341F00E94C2008DED90E0CF
:100390000E94710080E072C00E94AE008C2F0E940B
:1003A000D200882329F00E94C20084EF90E0F0CFB1
:1003B0000E945B0081E00E94610080E80E94610071
:1003C0000E945E0081E00E9438018093100181E06C
:1003D0000E94380180930F0180E00E9438018093D1
:1003E0000E0190911001292F2F70205D209316018E
:1003F000907792959F70905D9093150120910F01D9
:10040000922F9F70905D90931401022E000C330B7D
:10041000207F332794E0359527959A95E1F7205D65
:1004200020931301982F9F70905D90931201082ED6
:10043000000C990B807F992724E0959587952A9544
:10044000E1F7805D8093110185E091E00E947100E9
:1004500001E111E0C0E0F80181918F010E94690083
:10046000D1E0DC0FCD7FC13019F48AE30E9469002E
:10047000CD2FD63081F70E94C20081E0DF91CF916D
:100480001F910F910895CF93DF930E9493000E94D4
:10049000A90085E090E00E94490060E080ED0E94A4
:1004A0006701882381F041ED60E080ED0E94AC019E
:1004B000882349F0C8EED3E088EE93E00E9449001B
:1004C0002197D1F7F0CF80E090E0DF91CF910895B0
:0404D000F894FFCFCE
:1004D400414444525F57524954455F4552524F522A
:1004E400312100504F534954494F4E5F504C4143C2
:1004F400494E475F4552524F522100444154415F97
:1005040057524954494E475F4552524F5231210088
:10051400444154415F57524954494E475F455252F2
:100524004F52322100444154415F57524954494E7D
:10053400475F4552524F52332100414444525F5762
:10054400524954455F4552524F52322100504F5345
:100554004954494F4E5F504C4143455F4552524FB9
:1005640052322100414444525F524541445F455256
:0C057400524F52210054494D452D00000B
:00000001FF
